:100000000C94F4000C9411010C9411010C946401F3
:100010000C9411010C9411010C9411010C94110118
:100020000C9411010C9411010C941A070C945407B0
:100030000C9411010C9411010C9411010C941101F8
:100040000C9411010C9411010C9411010C941101E8
:100050000C9411010C9411010C9411010C943F01AA
:100060000C9411010C9411010C9411010C941101C8
:100070000C9411010C9411010C9411010C941101B8
:100080000C9411010C9411010C9411010C941101A8
:100090000C9411010C9411010C9411010C94110198
:1000A0000C9411010C9411010C941101C206BA06B2
:1000B000B206AA06A2069A0692068A0682067A0660
:1000C00072066A0662065A0652064A0642063A0650
:1000D00032062A0622061A0612060A060206FA0541
:1000E000F205EA05E205DA05D205CA05C205BA0538
:1000F000B205AA05A2059A0592058A0582057A0528
:1001000072056A0562055A0552054A0542053A0517
:1001100032052A0522051A0512050A050205FA0408
:10012000F204EA04E204DA04D204CA04C2040A00B3
:100130002000200000010000CB0112000200008816
:10014000014300030000840104010309047001124B
:1001500002030904680106030309045E0108080399
:10016000340031003000000006034D003200000072
:1001700012034A002E0020004600690065006E0050
:10018000650000000403090409024300020100C0E5
:1001900032090400000102020100052400100105DB
:1001A000240101010424020605240600010705823A
:1001B0000310004009040100020A000000070503C3
:1001C0000240000007058402400000120100020204
:1001D000000010C0167A040001010203010001C1F1
:1001E000120180360181360011241FBECFEFDAE004
:1001F000DEBFCDBF11E0A0E0B1E0E6EDFAE102C064
:1002000005900D92A830B107D9F721E0A8E0B1E040
:1002100001C01D92A631B207E1F70E94F40B0C94C5
:10022000690D0C94000085B5877F85BD84B58D7FF1
:1002300084BD84B58E7F84BDEEE6F0E08081816070
:10024000808385B58B7F85BD85B58D7F85BD85B563
:100250008E7F85BD089585B5846085BD85B58D7F0C
:1002600085BD85B5816085BD089585B58B7F85BDCC
:1002700085B58D7F85BD85B58E7F85BD08951F921F
:100280000F920FB60F9211248F939F93AF93BF934A
:1002900080910C0190910D01A0910E01B0910F0180
:1002A0000196A11DB11D80930C0190930D01A093A7
:1002B0000E01B0930F01BF91AF919F918F910F905D
:1002C0000FBE0F901F9018951F920F920FB60F92AE
:1002D00011242F933F934F935F936F937F938F934B
:1002E0009F93AF93BF93EF93FF9361E084E191E01D
:1002F0000E94160380911401992787FD90950E9412
:10030000D7088EE291E00E94A3086A9A8EB194E029
:1003100089278EB9FF91EF91BF91AF919F918F91F6
:100320007F916F915F914F913F912F910F900FBEF1
:100330000F901F901895FC0120E030E080E090E0E5
:10034000261737074CF4419151918417950708F40B
:10035000CA012F5F3F4FF4CF0895EF92FF920F93A2
:100360001F93CF93DF93FC0180E090E07A0121E0BE
:10037000E21AF1088E159F054CF50196DF019C01EC
:100380002417350709F161110AC01296CD91DC914D
:100390001397008111810C171D0790F40BC0613079
:1003A00079F41296CD91DC91139700811181C017D9
:1003B000D10730F413961C930E931297D183C08308
:1003C0002F5F3F4F1296DCCF3296D4CFDF91CF9183
:1003D0001F910F91FF90EF9008950E94D50CCB01D3
:1003E0000895CF93DF93E1E6F0E080E88083108208
:1003F0008083108285BF85BF0E944C0B0E94B7038B
:100400007894E1E8F0E080818B7F80838081826056
:10041000808380818160808380818061808380810E
:1004200088608083E0E8F0E0808182608083808162
:100430008160808380818F77808380818F7B8083C0
:1004400080818062808380818F7E8083279A8081F3
:10045000877F808380818B7F8083A8E8B0E029E05C
:100460003DE311963C932E93ECE8F0E088E893E1AD
:100470009183808311963C932E9320E137E2309351
:100480008B0020938A0091838083EFE6F0E08081E7
:1004900081608083E1E9F0E08081846080838081F5
:1004A0008D7F808380818160808380818061808373
:1004B000808188608083E0E9F0E0808182608083D1
:1004C00080818E7F808380818F77808380818F7B06
:1004D00080838CE990E090939900809398009093AA
:1004E000970080939600E1E7F0E08081816080834F
:1004F000E1ECF0E08081877F808380818B7F808347
:10050000808182608083808181608083E3ECF0E081
:1005100080818D7F808380818E7F8083C1EDD0E05C
:100520008FEF8883A0ECB0E08C918D7F8C93E2EC10
:10053000F0E080818F77808380818F7B80838C91B6
:100540008E7F8C938C918F7D8C938C918F7E8C93EE
:1005500080818E7F80838081877F808380818B7F75
:1005600080838881869586958093CF008881869543
:1005700086958093D200DF91CF910895CF93DF933A
:1005800000D01F92CDB7DEB74B836A8389830E9468
:100590004C0B94EA9093BC0089816A814B819091C5
:1005A000BC0097FFFCCF90E59093BB0094E890933C
:1005B000BC009091BC0097FFFCCF9091B900987F50
:1005C000903229F484E98093BC0080E029C091E056
:1005D0009093BB0094E89093BC009091BC0097FF6F
:1005E000FCCF8093BB0084E88093BC008091BC006A
:1005F00087FFFCCF6093BB0084E88093BC008091B0
:10060000BC0087FFFCCF4093BB0084E88093BC0014
:100610008091BC0087FFFCCF84E98093BC0081E01F
:100620000F900F900F90DF91CF91089524EA2093BF
:10063000BC002091BC0027FFFCCF21E52093BB002C
:1006400024E82093BC002091BC0027FFFCCF209120
:10065000B900287F2834A9F024EC2093BC00209115
:10066000BC0027FFFCCF2091BB0026130AC0FC0171
:1006700020E030E0772767FD70956150710944EC08
:100680000EC084E98093BC0080E008955091BC00C6
:1006900057FFFCCF5091BB0051932F5F3F4F261760
:1006A00037071CF44093BC00F1CF44E84093BC00F2
:1006B0004091BC0047FFFCCF4091BB00FC01E20F22
:1006C000F31F408384E98093BC0081E00895F8948F
:1006D00094EA9093BC009091BC0097FFFCCF90E50A
:1006E0009093BB0094E89093BC009091BC0097FF5E
:1006F000FCCF9091B900987F903231F484E98093D7
:10070000BC00789480E0089593E09093BB0094E857
:100710009093BC009091BC0097FFFCCF8093BB00EE
:1007200084E88093BC008091BC0087FFFCCFFB0174
:10073000552747FD509524E8CF01861B970B84175A
:10074000950754F481918093BB002093BC00809165
:10075000BC0087FFFCCFF0CF84E98093BC00789485
:1007600081E008958091E80080FFFCCF089581E04A
:100770008093D70080EA8093D80082E189BD09B4D4
:1007800000FEFDCF80E98093D8001092E000109227
:100790001301109210018CE08093E2007894089588
:1007A0008091130108959FB7F894809113018823D5
:1007B00039F083E08093E9008091E80085FD03C073
:1007C0009FBF8FEF08958091F1002091E80025FDF3
:1007D00003C02BE62093E8009FBF08959FB7F894CD
:1007E00080911301882331F083E08093E9008091A8
:1007F000F20001C080E09FBF08958091130188231B
:1008000071F08FB7F89493E09093E9002BE6909104
:10081000E80095FF03C02093E800F9CF8FBF08954B
:1008200090911301992371F09FB7F89424E02093DD
:10083000E90020911101222349F02091E80025FDD3
:1008400003C09FBF8FEF0895109211012091E40023
:10085000275E34E04091E80045FD12C09FBF9091B3
:10086000E400921304C081E080931101EBCF9091DA
:100870001301992339F39FB7F8943093E900EACF35
:100880008093F1008091E80085FD03C08AE38093A6
:10089000E80085E0809312019FBF80E00895909169
:1008A00013019923D1F09FB7F89424E02093E90035
:1008B0002091E80025FD02C09FBF0FC08093F1008A
:1008C0008091E80085FD03C08AE38093E80085E01D
:1008D000809312019FBF80E008958FEF0895EF92FB
:1008E000FF921F93CF93DF937C01CB0120911301E3
:1008F000222371F0AFB7F89424E02093E90020910F
:100900001101222349F02091E80025FD03C0AFBF6B
:100910008FEF42C210921101B4E0C0E4DAE315E0B7
:10092000009709F437C22091E400275E3091E80077
:1009300035FD12C0AFBF3091E400321304C081E036
:1009400080931101E5CF30911301332309F3AFB741
:10095000F894B093E900EACF2091F2004C2F421BAB
:10096000242F30E08217930708F4482F841B910945
:1009700050E04134510508F0FDC14A5A5F4FFA0179
:100980000C94E90CF70120812093F10097012F5F6F
:100990003F4F7901F70120812093F10097012F5FEC
:1009A0003F4F7901F70120812093F10097012F5FDC
:1009B0003F4F7901F70120812093F10097012F5FCC
:1009C0003F4F7901F70120812093F10097012F5FBC
:1009D0003F4F7901F70120812093F10097012F5FAC
:1009E0003F4F7901F70120812093F10097012F5F9C
:1009F0003F4F7901F70120812093F10097012F5F8C
:100A00003F4F7901F70120812093F10097012F5F7B
:100A10003F4F7901F70120812093F10097012F5F6B
:100A20003F4F7901F70120812093F10097012F5F5B
:100A30003F4F7901F70120812093F10097012F5F4B
:100A40003F4F7901F70120812093F10097012F5F3B
:100A50003F4F7901F70120812093F10097012F5F2B
:100A60003F4F7901F70120812093F10097012F5F1B
:100A70003F4F7901F70120812093F10097012F5F0B
:100A80003F4F7901F70120812093F10097012F5FFB
:100A90003F4F7901F70120812093F10097012F5FEB
:100AA0003F4F7901F70120812093F10097012F5FDB
:100AB0003F4F7901F70120812093F10097012F5FCB
:100AC0003F4F7901F70120812093F10097012F5FBB
:100AD0003F4F7901F70120812093F10097012F5FAB
:100AE0003F4F7901F70120812093F10097012F5F9B
:100AF0003F4F7901F70120812093F10097012F5F8B
:100B00003F4F7901F70120812093F10097012F5F7A
:100B10003F4F7901F70120812093F10097012F5F6A
:100B20003F4F7901F70120812093F10097012F5F5A
:100B30003F4F7901F70120812093F10097012F5F4A
:100B40003F4F7901F70120812093F10097012F5F3A
:100B50003F4F7901F70120812093F10097012F5F2A
:100B60003F4F7901F70120812093F10097012F5F1A
:100B70003F4F7901F70120812093F10097012F5F0A
:100B80003F4F7901F70120812093F10097012F5FFA
:100B90003F4F7901F70120812093F10097012F5FEA
:100BA0003F4F7901F70120812093F10097012F5FDA
:100BB0003F4F7901F70120812093F10097012F5FCA
:100BC0003F4F7901F70120812093F10097012F5FBA
:100BD0003F4F7901F70120812093F10097012F5FAA
:100BE0003F4F7901F70120812093F10097012F5F9A
:100BF0003F4F7901F70120812093F10097012F5F8A
:100C00003F4F7901F70120812093F10097012F5F79
:100C10003F4F7901F70120812093F10097012F5F69
:100C20003F4F7901F70120812093F10097012F5F59
:100C30003F4F7901F70120812093F10097012F5F49
:100C40003F4F7901F70120812093F10097012F5F39
:100C50003F4F7901F70120812093F10097012F5F29
:100C60003F4F7901F70120812093F10097012F5F19
:100C70003F4F7901F70120812093F10097012F5F09
:100C80003F4F7901F70120812093F10097012F5FF9
:100C90003F4F7901F70120812093F10097012F5FE9
:100CA0003F4F7901F70120812093F10097012F5FD9
:100CB0003F4F7901F70120812093F10097012F5FC9
:100CC0003F4F7901F70120812093F10097012F5FB9
:100CD0003F4F7901F70120812093F10097012F5FA9
:100CE0003F4F7901F70120812093F10097012F5F99
:100CF0003F4F7901F70120812093F10097012F5F89
:100D00003F4F7901F70120812093F10097012F5F78
:100D10003F4F7901F70120812093F10097012F5F68
:100D20003F4F7901F70120812093F10097012F5F58
:100D30003F4F7901F70120812093F10097012F5F48
:100D40003F4F7901F70120812093F10097012F5F38
:100D50003F4F7901F70120812093F10097012F5F28
:100D60003F4F7901F70120812093F10097012F5F18
:100D70003F4F7901F70120812093F10097012F5F08
:100D80003F4F79012091E80025FFD093E8001093B0
:100D90001201C6CDAFBF80E0DF91CF911F91FF90D0
:100DA000EF9008958FB7F89490911201992341F034
:100DB00094E09093E9009AE39093E8001092120176
:100DC0008FBF0895809104010895809105010895D1
:100DD0008091060108958091100108959FB7F894BD
:100DE00020911301222339F022E02093E900309171
:100DF000E80035FD03C09FBF8FEF089531EA3093BF
:100E0000F10030E23093F1001092F1001092F10005
:100E10001092F1001092F1002093F1001092F10075
:100E20008093F1001092F1008AE38093E8009FBF65
:100E300080E008951F920F920FB60F9211248F93A6
:100E40009F938091E1001092E10083FF11C0109206
:100E5000E90091E09093EB001092EC0092E1909306
:100E6000ED0098E09093F0001092130110921001A1
:100E700082FF13C080911301882379F080911201C1
:100E8000882359F0815080931201811106C084E0BB
:100E90008093E9008AE38093E8009F918F910F90FF
:100EA0000FBE0F901F9018951F920F920FB60F92C2
:100EB0001124EF92FF920F931F932F933F934F9321
:100EC0005F936F937F938F939F93AF93BF93EF93B2
:100ED000FF93CF93DF931F92CDB7DEB71092E90057
:100EE0008091E80083FF14C19091F1008091F1009E
:100EF0003091F1002091F100E32EF12CF22A0091C3
:100F0000F1002091F10010E0122B2091F10060918E
:100F1000F10032EF3093E800863009F046C036E049
:100F200084E391E0FC01459154914E155F0539F43D
:100F3000FC013296459154914017510721F00796D4
:100F4000315081F7E5C0FC01349645915491FC0184
:100F50003696849130E0362B2F3F310519F010F092
:100F60002FEF30E0281708F4822F3EEF9091E80031
:100F7000292F2570D9F392FDCEC0982F813108F02A
:100F800090E1FA01292F222331F064916093F1005E
:100F900021503196F8CF490F511D891B3093E8003D
:100FA0008111E4CF903111F3B6C0853051F48EEF4A
:100FB0008093E8000E94B2038E2D80688093E30046
:100FC000AAC0893059F5911180C0E09213011092A6
:100FD0001001109212018EEF8093E80041E08DED38
:100FE00091E04093E9009C012F5F3F4FFC01549139
:100FF0005093EB00552359F0F90124912093EC0014
:101000009C012D5F3F4F319684918093ED004F5F9F
:10101000453011F0C901E5CF8EE175C0883051F43B
:10102000903809F052C00E94B2038091130180935E
:10103000F10047C0813279F4913A09F046C00E942C
:10104000B203E0E0F1E081918093F10081E0E730CC
:10105000F807C9F736C0803299F49132B1F5809122
:10106000E80082FFFCCFE0E0F1E08091F1008193A5
:1010700081E0E730F807C9F78BEF8093E80021C0E3
:10108000823241F4913209F043C0E09210010E9493
:10109000B20317C0811119C099830E94B2039981CC
:1010A000923851F40093E9008091EB0085FB88278A
:1010B00080F91092E90001C080E08093F100109265
:1010C000F1008EEF8093E80026C0282F2D7F21307D
:1010D000F9F49230E9F4EF28D9F40F779FEF900FED
:1010E0009430B0F49EEF9093E8000093E9008330D1
:1010F00079F089E18093EB0081E090E0002E01C05F
:10110000880F0A94EAF78093EA001092EA0003C07D
:1011100081E28093EB000F90DF91CF91FF91EF91EF
:10112000BF91AF919F918F917F916F915F914F91FF
:101130003F912F911F910F91FF90EF900F900FBE55
:101140000F901F9018951F93CF93DF93EC01FE0132
:101150001491112351F01A3019F48DE00E941004FB
:10116000812F0E9410042196F2CFDF91CF911F9121
:1011700008958A3010F490E301C097E3890F0C942E
:101180001004CF93C82F82958F700E94B9088C2FBE
:101190008F70CF910C94B908CF93C82F892F0E94DC
:1011A000C1088C2FCF910C94C1080C94C108EF9208
:1011B000FF920F931F93CF93DF93CDB7DEB727979F
:1011C0000FB6F894DEBF0FBECDBF8E010F5F1F4F6D
:1011D00027E0F80111922A95E9F74AE0B8010E9448
:1011E000030D7E01F8E0EF0EF11CF80181918F01F3
:1011F00081110E9410040E151F05B9F727960FB62E
:10120000F894DEBF0FBECDBFDF91CF911F910F913C
:10121000FF90EF900895EF92FF920F931F93CF935B
:10122000DF9300D000D000D0CDB7DEB78E010F5FC6
:101230001F4F26E0F80111922A95E9F74AE0B8011C
:101240000E943F0D7E01F6E0EF0EF11CF801819146
:101250008F0181110E9410040E151F05B9F7269603
:101260000FB6F894DEBF0FBECDBFDF91CF911F91B7
:101270000F91FF90EF900895EF92FF920F931F93BD
:10128000CF93DF93CDB7DEB72B970FB6F894DEBFC1
:101290000FBECDBF8E010F5F1F4F2BE0F8011192E3
:1012A0002A95E9F72AE0A8010E940E0D7E01FCE0D4
:1012B000EF0EF11CF80181918F0181110E94100441
:1012C0000E151F05B9F72B960FB6F894DEBF0FBEAB
:1012D000CDBFDF91CF911F910F91FF90EF900895B7
:1012E000EF92FF920F931F93CF93DF93CDB7DEB7AB
:1012F0002B970FB6F894DEBF0FBECDBF8E010F5FE8
:101300001F4F2BE0F80111922A95E9F72AE0A80176
:101310000E941D0D7E01FBE0EF0EF11CF801819192
:101320008F0181110E9410040E151F05B9F72B962D
:101330000FB6F894DEBF0FBECDBFDF91CF911F91E6
:101340000F91FF90EF90089520E030E08091BC0075
:1013500087FD06C02F5F3F4F293E83E03807B1F776
:1013600081E0283E334009F480E008958093BB007B
:1013700084E88093BC000E94A409882319F080911E
:10138000B900887F0895CF93C82F84EA8093BC006A
:101390000E94A409882361F08C2F880F0E94B6094F
:1013A000803229F484E98093BC0080E001C081E0B0
:1013B000CF9108950E944C0B88E50E94C3098111CA
:1013C00002C080E0089580E30E94B6098823C9F333
:1013D00081E00E94B6098823A1F384E98093BC00D0
:1013E0008FE39CE90197F1F700C0000088E50E94B7
:1013F000C309882331F380E00E94B609882309F3EA
:1014000080E00E94B6098823E1F280E00E94B609DC
:101410008823B9F280E00E94B609882391F280E027
:101420000E94B609882369F280E00E94B6098823E9
:1014300041F280E00E94B609882319F280E90E94F7
:10144000B609882309F4BDCF84E98093BC008FE3FB
:101450009CE90197F1F700C0000088E50E94C309EC
:10146000882309F4AECF87E00E94B609882309F4E7
:10147000A8CF80E00E94B609882309F4A2CF81E4B6
:101480000E94B609882309F49CCF84E98093BC00AC
:101490008FE39CE90197F1F700C0000088E50E9406
:1014A000C309882309F48DCF8AE10E94B6098823F5
:1014B00009F487CF80E40E94B609882309F481CF1C
:1014C00080E00E94B609882309F47BCF84E98093E9
:1014D000BC008FE39CE90197F1F700C0000088E5AC
:1014E0000E94C309882309F46CCF83E30E94B609E4
:1014F000882309F466CF83E00E94B609882309F4A3
:1015000060CF84E98093BC008FE39CE90197F1F7F9
:1015100000C0000088E50E94C309882309F451CF68
:1015200080E30E94B609882309F44BCF88E00E942B
:10153000B609882309F445CF84E98093BC008FE382
:101540009CE90197F1F700C0000081E00895CF9376
:10155000C82F84EA8093BC000E94A409882369F004
:101560008C2F880F8F5F0E94B609883429F484E994
:101570008093BC0080E001C081E0CF910895EF929C
:10158000FF920F931F93CF93DF93CDB7DEB7609792
:101590000FB6F894DEBF0FBECDBF7C018E010F5F8A
:1015A0001F4F80E1F80111928A95E9F788E50E94C2
:1015B000C309811102C080E05EC086E30E94B609C3
:1015C0008823C9F384E98093BC00F5E8FA95F1F724
:1015D000000088E50E94A70A882369F3F8019E01AC
:1015E000205F3F4F94EC9093BC008091BC0087FF3C
:1015F000FCCF8091BB008193E217F307A1F784E849
:101600008093BC008091BC0087FFFCCF8091BB0021
:10161000888B84E98093BC00DE01149687016C916D
:10162000762F7073AD0142505109FA01808190E02C
:10163000F0E17F9F800D911D1124F801918380833B
:10164000762F707C4F5F5F4FFA01808190E0F4E06D
:101650007F9F800D911D1124F801938382836F7009
:10166000862F90E09583848313960A5F1F4FA217FD
:10167000B307A9F681E060960FB6F894DEBF0FBEFF
:10168000CDBFDF91CF911F910F91FF90EF90089503
:1016900084E98093BC000895589A599A5A9A8CE02C
:1016A0008093B800E9E6F0E08081806280838081E9
:1016B0008F7E8083EA9A7894089584E88093BC00B2
:1016C0008091BC0087FFFCCF8091BB00089584E926
:1016D0008093BC00089520E030E08091BC0087FD3D
:1016E00006C02F5F3F4F293E83E03807B1F781E006
:1016F000283E334009F480E008958093BB0084E8DD
:101700008093BC000E946B0B882321F08091B9006C
:10171000887F089580E008951F93CF93DF931F92F1
:10172000CDB7DEB7182F84EA8093BC0069830E948E
:101730006B0B6981811104C094E99093BC0014C0C3
:10174000812F880F662331F08F5F0E947D0B8834D4
:1017500051F404C00E947D0B803229F484E9809307
:10176000BC0080E001C081E00F90DF91CF911F911C
:101770000895CF93DF93C82FD62F60E00E948C0B83
:10178000882391F08D2F0E947D0B882369F084E9D6
:101790008093BC0061E08C2F0E948C0B882321F089
:1017A000DF91CF910C945D0B80E0DF91CF91089594
:1017B000CF93DF93D62FC42F60E00E948C0B811152
:1017C00002C080E00EC08D2F0E947D0B8823C9F3DC
:1017D0008C2F0E947D0B8823A1F384E98093BC00A9
:1017E00081E0DF91CF910895CF93DF931F92CDB722
:1017F000DEB780E8809361001092610078940E94C7
:10180000B7030E944C0B41E061E181E00E94BE02FF
:101810000E9413015398549A4B9B05C080E090E0BE
:10182000A0E8BFE303C080E090E0DC018093080102
:1018300090930901A0930A01B0930B0180911401C8
:10184000882321F0813019F45C9A01C05C98609182
:1018500008017091090180910A0190910B010E9489
:101860007B0C61307105A1F4609108017091090150
:1018700080910A0190910B010E947B0C6983862F55
:10188000992787FD90950E94D70882E391E020C0B8
:10189000609108017091090180910A0190910B01FA
:1018A0000E947B0C672B09F0B7CF60910801709103
:1018B000090180910A0190910B010E947B0C6983C0
:1018C000862F992787FD90950E94D70880E391E0A5
:1018D0000E94A3082FE78CE991E0215080409040BE
:1018E000E1F700C0000041E0BE016F5F7F4F81E083
:1018F0000E94670391CF04D06894B11150C008953D
:1019000033D088F09F5790F0B92F9927B751A0F0A6
:10191000D1F0660F771F881F991F1AF0BA95C9F783
:1019200012C0B13081F03AD0B1E0089537C0672FCE
:10193000782F8827B85F39F0B93FCCF38695779533
:101940006795B395D9F73EF490958095709561951C
:101950007F4F8F4F9F4F089557FD9058440F551F4D
:1019600059F05F3F71F04795880F97FB991F61F021
:101970009F3F79F087950895121613061406551F98
:10198000F2CF4695F1DF08C0161617061806991F04
:10199000F1CF86957105610508940895E894BB27F9
:1019A00066277727CB0197F9089597FB072E16F442
:1019B000009407D077FD09D00E94EF0C07FC05D0FA
:1019C0003EF4909581959F4F0895709561957F4F56
:1019D0000895EE0FFF1F0590F491E02D0994AA1BC6
:1019E000BB1B51E107C0AA1FBB1FA617B70710F00A
:1019F000A61BB70B881F991F5A95A9F7809590953C
:101A0000BC01CD010895BB274A3031F4992322F45B
:101A1000BDE2909581959F4F0C94400DBB272A30D5
:101A200051F4992342F4BDE29095809570956195AB
:101A30007F4F8F4F9F4F0C941E0DBB27FA01A62F8F
:101A40006217710581059105330B30FB66F0AA27FB
:101A5000660F771F881F991FAA1FA21710F0A21BDD
:101A600063953850A9F7A05DAA3308F0A95DA1934A
:101A700036F7B111B1931082CA010C94590DBB27EE
:101A8000FB015527AA27880F991FAA1FA41710F03A
:101A9000A41B83955051B9F7A05DAA3308F0A95D46
:101AA000A193009779F7B111B1931192CB010C94E6
:101AB000590DDC01FC01672F71917723E1F7329713
:101AC00004C07C916D9370836291AE17BF07C8F319
:061AD0000895F894FFCF19
:081AD60000E10000000008001F
:00000001FF
