:100000000C94F5000C9412010C9412010C946501EF
:100010000C9412010C9412010C9412010C94120114
:100020000C9412010C9412010C9417070C945107B4
:100030000C9412010C9412010C9412010C941201F4
:100040000C9412010C9412010C9412010C941201E4
:100050000C9412010C9412010C9412010C944001A6
:100060000C9412010C9412010C9412010C941201C4
:100070000C9412010C9412010C9412010C941201B4
:100080000C9412010C9412010C9412010C941201A4
:100090000C9412010C9412010C9412010C94120194
:1000A0000C9412010C9412010C941201BF06B706B5
:1000B000AF06A7069F0697068F0687067F06770678
:1000C0006F0667065F0657064F0647063F06370668
:1000D0002F0627061F0617060F060706FF05F7055A
:1000E000EF05E705DF05D705CF05C705BF05B70550
:1000F000AF05A7059F0597058F0587057F05770540
:100100006F0567055F0557054F0547053F0537052F
:100110002F0527051F0517050F050705FF04F70421
:10012000EF04E704DF04D704CF04C704BF040A00C8
:1001300020002000200A0000010000CE0112000271
:1001400000008B0143000300008701040103090440
:10015000730112020309046B010603030904610120
:10016000080803340031003000000006034D00325F
:1001700000000012034A002E0020004600690065BE
:10018000006E006500000004030904090243000238
:100190000100C03209040000010202010005240030
:1001A00010010524010101042402060524060001B2
:1001B0000705820310004009040100020A00000044
:1001C00007050302400000070584024000001201F9
:1001D000000202000010C0167A04000101020301AF
:1001E0000001C11201803601813611241FBECFEFFC
:1001F000DAE0DEBFCDBF11E0A0E0B1E0EEE4FDE16A
:1002000002C005900D92AA30B107D9F721E0AAE00B
:10021000B1E001C01D92AC31B207E1F70E94F10BD1
:100220000C94A50E0C94000085B5877F85BD84B520
:100230008D7F84BD84B58E7F84BDEEE6F0E0808145
:100240008160808385B58B7F85BD85B58D7F85BDBC
:1002500085B58E7F85BD089585B5846085BD85B5DE
:100260008D7F85BD85B5816085BD089585B58B7F02
:1002700085BD85B58D7F85BD85B58E7F85BD08958E
:100280001F920F920FB60F9211248F939F93AF93EB
:10029000BF9380910E0190910F01A0911001B09138
:1002A00011010196A11DB11D80930E0190930F01C4
:1002B000A0931001B0931101BF91AF919F918F91C5
:1002C0000F900FBE0F901F9018951F920F920FB6B0
:1002D0000F9211242F933F934F935F936F937F93CC
:1002E0008F939F93AF93BF93EF93FF9361E08AE166
:1002F00091E00E9413035D9A80911A01992787FD6E
:1003000090950E94D4088EE291E00E94A008FF918F
:10031000EF91BF91AF919F918F917F916F915F917D
:100320004F913F912F910F900FBE0F901F901895F6
:10033000FC0120E030E080E090E0261737074CF425
:10034000419151918417950708F4CA012F5F3F4FDF
:10035000F4CF0895EF92FF920F931F93CF93DF9303
:10036000FC0180E090E07A0121E0E21AF1088E15AC
:100370009F054CF50196DF019C012417350709F113
:1003800061110AC01296CD91DC9113970081118101
:100390000C171D0790F40BC0613079F41296CD91C3
:1003A000DC91139700811181C017D10730F41396A7
:1003B0001C930E931297D183C0832F5F3F4F1296E9
:1003C000DCCF3296D4CFDF91CF911F910F91FF9068
:1003D000EF9008950E94110ECB010895CF93DF9303
:1003E000E1E6F0E080E8808310828083108285BFA0
:1003F00085BF0E94490B0E94B4037894E1E8F0E0C5
:1004000080818B7F80838081826080838081816016
:100410008083808180618083808188608083E0E840
:10042000F0E0808182608083808181608083808130
:100430008F77808380818F7B8083808180628083BF
:1004400080818F7E8083279A8081877F80838081CF
:100450008B7F8083A8E8B0E029E03DE311963C93D0
:100460002E93ECE8F0E088E893E191838083119685
:100470003C932E9320E137E230938B0020938A0047
:1004800091838083EFE6F0E0808181608083E1E901
:10049000F0E080818460808380818D7F8083808193
:1004A0008160808380818061808380818860808397
:1004B000E0E9F0E080818260808380818E7F8083AC
:1004C00080818F77808380818F7B80838CE990E02F
:1004D0009093990080939800909397008093960052
:1004E000E1E7F0E0808181608083E1ECF0E08081F1
:1004F000877F808380818B7F8083808182608083FF
:10050000808181608083E3ECF0E080818D7F808357
:1005100080818E7F8083C1EDD0E08FEF8883A0EC57
:10052000B0E08C918D7F8C93E2ECF0E080818F774E
:10053000808380818F7B80838C918E7F8C938C9144
:100540008F7D8C938C918F7E8C9380818E7F808326
:100550008081877F808380818B7F8083888186955F
:1005600086958093CF008881869586958093D2006A
:10057000DF91CF910895CF93DF9300D01F92CDB735
:10058000DEB74B836A8389830E94490B94EA909378
:10059000BC0089816A814B819091BC0097FFFCCFA0
:1005A00090E59093BB0094E89093BC009091BC00C0
:1005B00097FFFCCF9091B900987F903229F484E99D
:1005C0008093BC0080E029C091E09093BB0094E848
:1005D0009093BC009091BC0097FFFCCF8093BB0030
:1005E00084E88093BC008091BC0087FFFCCF6093BF
:1005F000BB0084E88093BC008091BC0087FFFCCFE7
:100600004093BB0084E88093BC008091BC0087FFCE
:10061000FCCF84E98093BC0081E00F900F900F9095
:10062000DF91CF91089524EA2093BC002091BC0073
:1006300027FFFCCF21E52093BB0024E82093BC00DA
:100640002091BC0027FFFCCF2091B900287F2834DF
:10065000A9F024EC2093BC002091BC0027FFFCCF24
:100660002091BB0026130AC0FC0120E030E0772770
:1006700067FD70956150710944EC0EC084E9809368
:10068000BC0080E008955091BC0057FFFCCF509112
:10069000BB0051932F5F3F4F261737071CF4409341
:1006A000BC00F1CF44E84093BC004091BC0047FF40
:1006B000FCCF4091BB00FC01E20FF31F408384E9B3
:1006C0008093BC0081E00895F89494EA9093BC0074
:1006D0009091BC0097FFFCCF90E59093BB0094E80D
:1006E0009093BC009091BC0097FFFCCF9091B90013
:1006F000987F903231F484E98093BC00789480E054
:10070000089593E09093BB0094E89093BC0090917F
:10071000BC0097FFFCCF8093BB0084E88093BC00B3
:100720008091BC0087FFFCCFFB01552747FD50950A
:1007300024E8CF01861B970B8417950754F4819109
:100740008093BB002093BC008091BC0087FFFCCF4E
:10075000F0CF84E98093BC00789481E00895809183
:10076000E80080FFFCCF089581E08093D70080EA05
:100770008093D80082E189BD09B400FEFDCF80E9F5
:100780008093D8001092E000109219011092160187
:100790008CE08093E2007894089580911901089587
:1007A0009FB7F89480911901882339F083E08093F2
:1007B000E9008091E80085FD03C09FBF8FEF089599
:1007C0008091F1002091E80025FD03C02BE62093E5
:1007D000E8009FBF08959FB7F8948091190188237E
:1007E00031F083E08093E9008091F20001C080E065
:1007F0009FBF089580911901882371F08FB7F894F5
:1008000093E09093E9002BE69091E80095FF03C0F8
:100810002093E800F9CF8FBF089590911901992393
:1008200071F09FB7F89424E02093E900209117011C
:10083000222349F02091E80025FD03C09FBF8FEFE0
:100840000895109217012091E400275E34E0409152
:10085000E80045FD12C09FBF9091E400921304C0D0
:1008600081E080931701EBCF90911901992339F31F
:100870009FB7F8943093E900EACF8093F10080911C
:10088000E80085FD03C08AE38093E80085E080935B
:1008900018019FBF80E00895909119019923D1F02C
:1008A0009FB7F89424E02093E9002091E80025FD0B
:1008B00002C09FBF0FC08093F1008091E80085FDCA
:1008C00003C08AE38093E80085E0809318019FBF0E
:1008D00080E008958FEF0895EF92FF921F93CF93DA
:1008E000DF937C01CB0120911901222371F0AFB776
:1008F000F89424E02093E90020911701222349F085
:100900002091E80025FD03C0AFBF8FEF42C21092D7
:100910001701B4E0C0E4DAE315E0009709F437C248
:100920002091E400275E3091E80035FD12C0AFBF92
:100930003091E400321304C081E080931701E5CFC9
:1009400030911901332309F3AFB7F894B093E9005C
:10095000EACF2091F2004C2F421B242F30E0821767
:10096000930708F4482F841B910950E04134510546
:1009700008F0FDC14A5A5F4FFA010C94250EF701A9
:1009800020812093F10097012F5F3F4F7901F701FC
:1009900020812093F10097012F5F3F4F7901F701EC
:1009A00020812093F10097012F5F3F4F7901F701DC
:1009B00020812093F10097012F5F3F4F7901F701CC
:1009C00020812093F10097012F5F3F4F7901F701BC
:1009D00020812093F10097012F5F3F4F7901F701AC
:1009E00020812093F10097012F5F3F4F7901F7019C
:1009F00020812093F10097012F5F3F4F7901F7018C
:100A000020812093F10097012F5F3F4F7901F7017B
:100A100020812093F10097012F5F3F4F7901F7016B
:100A200020812093F10097012F5F3F4F7901F7015B
:100A300020812093F10097012F5F3F4F7901F7014B
:100A400020812093F10097012F5F3F4F7901F7013B
:100A500020812093F10097012F5F3F4F7901F7012B
:100A600020812093F10097012F5F3F4F7901F7011B
:100A700020812093F10097012F5F3F4F7901F7010B
:100A800020812093F10097012F5F3F4F7901F701FB
:100A900020812093F10097012F5F3F4F7901F701EB
:100AA00020812093F10097012F5F3F4F7901F701DB
:100AB00020812093F10097012F5F3F4F7901F701CB
:100AC00020812093F10097012F5F3F4F7901F701BB
:100AD00020812093F10097012F5F3F4F7901F701AB
:100AE00020812093F10097012F5F3F4F7901F7019B
:100AF00020812093F10097012F5F3F4F7901F7018B
:100B000020812093F10097012F5F3F4F7901F7017A
:100B100020812093F10097012F5F3F4F7901F7016A
:100B200020812093F10097012F5F3F4F7901F7015A
:100B300020812093F10097012F5F3F4F7901F7014A
:100B400020812093F10097012F5F3F4F7901F7013A
:100B500020812093F10097012F5F3F4F7901F7012A
:100B600020812093F10097012F5F3F4F7901F7011A
:100B700020812093F10097012F5F3F4F7901F7010A
:100B800020812093F10097012F5F3F4F7901F701FA
:100B900020812093F10097012F5F3F4F7901F701EA
:100BA00020812093F10097012F5F3F4F7901F701DA
:100BB00020812093F10097012F5F3F4F7901F701CA
:100BC00020812093F10097012F5F3F4F7901F701BA
:100BD00020812093F10097012F5F3F4F7901F701AA
:100BE00020812093F10097012F5F3F4F7901F7019A
:100BF00020812093F10097012F5F3F4F7901F7018A
:100C000020812093F10097012F5F3F4F7901F70179
:100C100020812093F10097012F5F3F4F7901F70169
:100C200020812093F10097012F5F3F4F7901F70159
:100C300020812093F10097012F5F3F4F7901F70149
:100C400020812093F10097012F5F3F4F7901F70139
:100C500020812093F10097012F5F3F4F7901F70129
:100C600020812093F10097012F5F3F4F7901F70119
:100C700020812093F10097012F5F3F4F7901F70109
:100C800020812093F10097012F5F3F4F7901F701F9
:100C900020812093F10097012F5F3F4F7901F701E9
:100CA00020812093F10097012F5F3F4F7901F701D9
:100CB00020812093F10097012F5F3F4F7901F701C9
:100CC00020812093F10097012F5F3F4F7901F701B9
:100CD00020812093F10097012F5F3F4F7901F701A9
:100CE00020812093F10097012F5F3F4F7901F70199
:100CF00020812093F10097012F5F3F4F7901F70189
:100D000020812093F10097012F5F3F4F7901F70178
:100D100020812093F10097012F5F3F4F7901F70168
:100D200020812093F10097012F5F3F4F7901F70158
:100D300020812093F10097012F5F3F4F7901F70148
:100D400020812093F10097012F5F3F4F7901F70138
:100D500020812093F10097012F5F3F4F7901F70128
:100D600020812093F10097012F5F3F4F7901F70118
:100D700020812093F10097012F5F3F4F790120914F
:100D8000E80025FFD093E80010931801C6CDAFBF4F
:100D900080E0DF91CF911F91FF90EF9008958FB782
:100DA000F89490911801992341F094E09093E90010
:100DB0009AE39093E800109218018FBF08958091F4
:100DC0000601089580910701089580910801089512
:100DD0008091160108959FB7F8942091190122235C
:100DE00039F022E02093E9003091E80035FD03C09E
:100DF0009FBF8FEF089531EA3093F10030E23093D6
:100E0000F1001092F1001092F1001092F100109296
:100E1000F1002093F1001092F1008093F100109204
:100E2000F1008AE38093E8009FBF80E008951F925D
:100E30000F920FB60F9211248F939F938091E10030
:100E40001092E10083FF11C01092E90091E09093AD
:100E5000EB001092EC0092E19093ED0098E09093FB
:100E6000F000109219011092160182FF13C08091B8
:100E70001901882379F080911801882359F0815055
:100E800080931801811106C084E08093E9008AE311
:100E90008093E8009F918F910F900FBE0F901F904D
:100EA00018951F920F920FB60F921124EF92FF9296
:100EB0000F931F932F933F934F935F936F937F9362
:100EC0008F939F93AF93BF93EF93FF93CF93DF9352
:100ED0001F92CDB7DEB71092E9008091E80083FF42
:100EE00014C19091F1008091F1003091F1002091B6
:100EF000F100E32EF12CF22A0091F1002091F10093
:100F000010E0122B2091F1006091F10032EF30934C
:100F1000E800863009F046C036E087E391E0FC0146
:100F2000459154914E155F0539F4FC013296459177
:100F300054914017510721F00796315081F7E5C0D1
:100F4000FC01349645915491FC013696849130E031
:100F5000362B2F3F310519F010F02FEF30E0281716
:100F600008F4822F3EEF9091E800292F2570D9F3E5
:100F700092FDCEC0982F813108F090E1FA01292F1F
:100F8000222331F064916093F10021503196F8CF23
:100F9000490F511D891B3093E8008111E4CF903136
:100FA00011F3B6C0853051F48EEF8093E8000E94B3
:100FB000AF038E2D80688093E300AAC0893059F575
:100FC000911180C0E092190110921601109218013F
:100FD0008EEF8093E80041E080EE91E04093E900DD
:100FE0009C012F5F3F4FFC0154915093EB00552320
:100FF00059F0F90124912093EC009C012D5F3F4FA3
:10100000319684918093ED004F5F453011F0C90116
:10101000E5CF8EE175C0883051F4903809F052C0A8
:101020000E94AF03809119018093F10047C0813283
:1010300079F4913A09F046C00E94AF03E2E0F1E092
:1010400081918093F10081E0E930F807C9F736C05B
:10105000803299F49132B1F58091E80082FFFCCFA3
:10106000E2E0F1E08091F100819381E0E930F8075E
:10107000C9F78BEF8093E80021C0823241F49132AE
:1010800009F043C0E09216010E94AF0317C081111E
:1010900019C099830E94AF039981923851F400934B
:1010A000E9008091EB0085FB882780F91092E90028
:1010B00001C080E08093F1001092F1008EEF8093E8
:1010C000E80026C0282F2D7F2130F9F49230E9F472
:1010D000EF28D9F40F779FEF900F9430B0F49EEF84
:1010E0009093E8000093E900833079F089E18093E0
:1010F000EB0081E090E0002E01C0880F0A94EAF72F
:101100008093EA001092EA0003C081E28093EB0032
:101110000F90DF91CF91FF91EF91BF91AF919F9190
:101120008F917F916F915F914F913F912F911F917F
:101130000F91FF90EF900F900FBE0F901F9018959A
:101140001F93CF93DF93EC01FE011491112351F013
:101150001A3019F48DE00E940D04812F0E940D04B5
:101160002196F2CFDF91CF911F9108958A3010F42C
:1011700090E301C097E3890F0C940D04CF93C82F1F
:1011800082958F700E94B6088C2F8F70CF910C942F
:10119000B608CF93C82F892F0E94BE088C2FCF91FD
:1011A0000C94BE080C94BE08EF92FF920F931F930D
:1011B000CF93DF93CDB7DEB727970FB6F894DEBF96
:1011C0000FBECDBF8E010F5F1F4F27E0F8011192B8
:1011D0002A95E9F74AE0B8010E943F0E7E01F8E047
:1011E000EF0EF11CF80181918F0181110E940D0415
:1011F0000E151F05B9F727960FB6F894DEBF0FBE80
:10120000CDBFDF91CF911F910F91FF90EF90089587
:10121000EF92FF920F931F93CF93DF9300D000D0F4
:1012200000D0CDB7DEB78E010F5F1F4F26E0F8016B
:1012300011922A95E9F74AE0B8010E947B0E7E01DF
:10124000F6E0EF0EF11CF80181918F0181110E94EF
:101250000D040E151F05B9F726960FB6F894DEBFDC
:101260000FBECDBFDF91CF911F910F91FF90EF90F7
:101270000895EF92FF920F931F93CF93DF93CDB713
:10128000DEB72B970FB6F894DEBF0FBECDBF8E0131
:101290000F5F1F4F2BE0F80111922A95E9F72AE022
:1012A000A8010E944A0E7E01FCE0EF0EF11CF8013D
:1012B00081918F0181110E940D040E151F05B9F750
:1012C0002B960FB6F894DEBF0FBECDBFDF91CF9146
:1012D0001F910F91FF90EF900895EF92FF920F935F
:1012E0001F93CF93DF93CDB7DEB72B970FB6F8944C
:1012F000DEBF0FBECDBF8E010F5F1F4F2BE0F80189
:1013000011922A95E9F72AE0A8010E94590E7E0160
:10131000FBE0EF0EF11CF80181918F0181110E9419
:101320000D040E151F05B9F72B960FB6F894DEBF06
:101330000FBECDBFDF91CF911F910F91FF90EF9026
:10134000089520E030E08091BC0087FD06C02F5F4B
:101350003F4F293E83E03807B1F781E0283E334014
:1013600009F480E008958093BB0084E88093BC007A
:101370000E94A109882319F08091B900887F0895FF
:10138000CF93C82F84EA8093BC000E94A1098823D0
:1013900061F08C2F880F0E94B309803229F484E910
:1013A0008093BC0080E001C081E0CF9108950E944D
:1013B000490B88E50E94C009811102C080E00895B0
:1013C00080E30E94B3098823C9F381E00E94B30936
:1013D0008823A1F384E98093BC008FE39CE9019703
:1013E000F1F700C0000088E50E94C009882331F3AE
:1013F00080E00E94B309882309F380E00E94B309CA
:101400008823E1F280E00E94B3098823B9F280E0EA
:101410000E94B309882391F280E00E94B3098823D7
:1014200069F280E00E94B309882341F280E00E94C3
:10143000B309882319F280E90E94B309882309F4CB
:10144000BDCF84E98093BC008FE39CE90197F1F75D
:1014500000C0000088E50E94C009882309F4AECFCF
:1014600087E00E94B309882309F4A8CF80E00E9496
:10147000B309882309F4A2CF81E40E94B309882329
:1014800009F49CCF84E98093BC008FE39CE9019729
:10149000F1F700C0000088E50E94C009882309F424
:1014A0008DCF8AE10E94B309882309F487CF80E4B5
:1014B0000E94B309882309F481CF80E00E94B30918
:1014C000882309F47BCF84E98093BC008FE39CE9F7
:1014D0000197F1F700C0000088E50E94C009882349
:1014E00009F46CCF83E30E94B309882309F466CF23
:1014F00083E00E94B309882309F460CF84E98093D4
:10150000BC008FE39CE90197F1F700C0000088E57B
:101510000E94C009882309F451CF80E30E94B309D7
:10152000882309F44BCF88E00E94B309882309F48B
:1015300045CF84E98093BC008FE39CE90197F1F7E4
:1015400000C0000081E00895CF93C82F84EA809303
:10155000BC000E94A109882369F08C2F880F8F5F3F
:101560000E94B309883429F484E98093BC0080E0A8
:1015700001C081E0CF910895EF92FF920F931F93E6
:10158000CF93DF93CDB7DEB760970FB6F894DEBF89
:101590000FBECDBF7C018E010F5F1F4F80E1F801B0
:1015A00011928A95E9F788E50E94C009811102C06D
:1015B00080E05EC086E30E94B3098823C9F384E912
:1015C0008093BC00F5E8FA95F1F7000088E50E94E9
:1015D000A40A882369F3F8019E01205F3F4F94EC31
:1015E0009093BC008091BC0087FFFCCF8091BB0032
:1015F0008193E217F307A1F784E88093BC00809100
:10160000BC0087FFFCCF8091BB00888B84E980936E
:10161000BC00DE01149687016C91762F7073AD01CA
:1016200042505109FA01808190E0F0E17F9F800DE6
:10163000911D1124F80191838083762F707C4F5F78
:101640005F4FFA01808190E0F4E07F9F800D911D53
:101650001124F801938382836F70862F90E0958325
:10166000848313960A5F1F4FA217B307A9F681E080
:1016700060960FB6F894DEBF0FBECDBFDF91CF915D
:101680001F910F91FF90EF90089584E98093BC0023
:101690000895589A599A5A9A8CE08093B800E9E6CE
:1016A000F0E080818062808380818F7E8083EA9AEF
:1016B0007894089584E88093BC008091BC0087FFF3
:1016C000FCCF8091BB00089584E98093BC0008950D
:1016D00020E030E08091BC0087FD06C02F5F3F4FC7
:1016E000293E83E03807B1F781E0283E334009F412
:1016F00080E008958093BB0084E88093BC000E9442
:10170000680B882321F08091B900887F089580E0DC
:1017100008951F93CF93DF931F92CDB7DEB7182F95
:1017200084EA8093BC0069830E94680B69818111FF
:1017300004C094E99093BC0014C0812F880F6623E5
:1017400031F08F5F0E947A0B883451F404C00E94FC
:101750007A0B803229F484E98093BC0080E001C0D8
:1017600081E00F90DF91CF911F910895CF93DF9388
:10177000C82FD62F60E00E94890B882391F08D2F0F
:101780000E947A0B882369F084E98093BC0061E0B1
:101790008C2F0E94890B882321F0DF91CF910C942C
:1017A0005A0B80E0DF91CF910895CF93DF93D62F2E
:1017B000C42F60E00E94890B811102C080E00EC03E
:1017C0008D2F0E947A0B8823C9F38C2F0E947A0BED
:1017D0008823A1F384E98093BC0081E0DF91CF915D
:1017E0000895CF93DF931F92CDB7DEB780E8809343
:1017F00061001092610078940E94B4030E94490B2A
:1018000041E061E181E00E94BB020E941401539813
:10181000549A559A4B9B05C080E090E0A0E8BFE346
:1018200003C080E090E0DC0180930A0190930B01FB
:10183000A0930C01B0930D015D980E942C01809142
:101840001A018130B1F460911201709113018091FD
:1018500014019091150120E030E040E85FE30E9420
:10186000FF0C609312017093130180931401909305
:10187000150180910E0190910F01A0911001B0917E
:1018800011014497A105B1050CF464C00E94360112
:1018900010920E0110920F0110921001109211017E
:1018A00060911201709113018091140190911501C2
:1018B00020E030E0A9010E940D0E181694F460910A
:1018C000120170911301809114019091150120E093
:1018D00030E040EA50E40E94630D181614F05C9A60
:1018E00012C06091120170911301809114019091C6
:1018F000150120E030E040E151E40E940D0E87FD2B
:1019000002C06E9A769860911201709113018091D5
:101910001401909115010E94670DCB010E94D4081B
:1019200084E391E00E94A00810921201109213012A
:1019300010921401109215012FEF80E792E02150D0
:1019400080409040E1F700C000006E9A769A6A9A53
:10195000729A5C9860910A0170910B0180910C0160
:1019600090910D010E94670D61307105A1F46091A5
:101970000A0170910B0180910C0190910D010E9460
:10198000670D6983862F992787FD90950E94D4085B
:1019900082E391E020C060910A0170910B01809177
:1019A0000C0190910D010E94670D672B09F032CF59
:1019B00060910A0170910B0180910C0190910D01D1
:1019C0000E94670D6983862F992787FD90950E9455
:1019D000D40880E391E00E94A0082FE78CE991E011
:1019E000215080409040E1F700C0000041E0BE017E
:1019F0006F5F7F4F81E00E9464030CCF5058BB277C
:101A0000AA270ED0D0C0C1D030F0C6D020F031F41B
:101A10009F3F11F41EF4B6C00EF4E095E7FBACC096
:101A2000E92FD2D080F3BA176207730784079507AE
:101A300018F071F49EF5EAC00EF4E0950B2EBA2F63
:101A4000A02D0B01B90190010C01CA01A0011124C4
:101A5000FF27591B99F0593F50F4503E68F11A1670
:101A6000F040A22F232F342F4427585FF3CF469501
:101A700037952795A795F0405395C9F77EF41F1623
:101A8000BA0B620B730B840BBAF09150A1F0FF0FED
:101A9000BB1F661F771F881FC2F70EC0BA0F621FD9
:101AA000731F841F48F4879577956795B795F795C9
:101AB0009E3F08F0B3CF9395880F08F09927EE0F5B
:101AC00097958795089534D008F481E0089504D05F
:101AD0006894B1119CC008957FD088F09F5790F012
:101AE000B92F9927B751A0F0D1F0660F771F881F43
:101AF000991F1AF0BA95C9F712C0B13081F086D09B
:101B0000B1E0089583C0672F782F8827B85F39F038
:101B1000B93FCCF3869577956795B395D9F73EF4A1
:101B200090958095709561957F4F8F4F9F4F089549
:101B3000990F0008550FAA0BE0E8FEEF16161706DE
:101B4000E807F907C0F012161306E407F50798F046
:101B5000621B730B840B950B39F40A2661F0232B5F
:101B6000242B252B21F408950A2609F4A140A695DB
:101B70008FEF811D811D089597F99F6780E870E0C0
:101B800060E008959FEF80EC089500240A941616F3
:101B9000170618060906089500240A94121613065B
:101BA000140605060895092E0394000C11F48823E9
:101BB00052F0BB0F40F4BF2B11F460FF04C06F5F05
:101BC0007F4F8F4F9F4F089557FD9058440F551FDB
:101BD00059F05F3F71F04795880F97FB991F61F0AF
:101BE0009F3F79F087950895121613061406551F26
:101BF000F2CF4695F1DF08C0161617061806991F92
:101C0000F1CF86957105610508940895E894BB2786
:101C100066277727CB0197F908958ADF08F48FEFBD
:101C2000089597FB072E16F4009407D077FD09D08E
:101C30000E942B0E07FC05D03EF4909581959F4F96
:101C40000895709561957F4F0895EE0FFF1F0590E1
:101C5000F491E02D0994AA1BBB1B51E107C0AA1FF8
:101C6000BB1FA617B70710F0A61BB70B881F991F3D
:101C70005A95A9F780959095BC01CD010895BB2791
:101C80004A3031F4992322F4BDE2909581959F4F1B
:101C90000C947C0EBB272A3051F4992342F4BDE208
:101CA00090958095709561957F4F8F4F9F4F0C94C5
:101CB0005A0EBB27FA01A62F6217710581059105FF
:101CC000330B30FB66F0AA27660F771F881F991F1A
:101CD000AA1FA21710F0A21B63953850A9F7A05DA8
:101CE000AA3308F0A95DA19336F7B111B193108220
:101CF000CA010C94950EBB27FB015527AA27880F14
:101D0000991FAA1FA41710F0A41B83955051B9F76F
:101D1000A05DAA3308F0A95DA193009779F7B111EE
:101D2000B1931192CB010C94950EDC01FC01672F4D
:101D300071917723E1F7329704C07C916D937083A2
:0E1D40006291AE17BF07C8F30895F894FFCF65
:0A1D4E00010000E1000000000800A1
:00000001FF
